:100000000C9462000C947F000C947F000C947F0091
:100010000C947F000C947F000C947F000C940804D7
:100020000C947F000C947F000C947F000C947F0054
:100030000C947F000C947F000C947F000C947F0044
:100040000C9437020C947F000C947F000C947F007A
:100050000C947F000C947F000C947F000C947F0024
:100060000C947F000C947F00000000080002010047
:100070000003040700000000000000000102040863
:100080001020408001020408102001020408102002
:10009000040404040404040402020202020203032E
:1000A00003030303000000002300260029000000D2
:1000B0000000250028002B0000000000240027007D
:1000C0002A00020011241FBECFEFD8E0DEBFCDBF53
:1000D00011E0A0E0B1E0E6E1F9E002C005900D9288
:1000E000A232B107D9F721E0A2E2B1E001C01D922E
:1000F000A233B207E1F70E9465040C9489040C94C2
:100100000000CF93DF93EC01862F6883498360E082
:100110000E943B0360E089810E943B0360E088818C
:100120000E94740360E08981DF91CF910C94740385
:1001300061E0FC0181810E943B0382E390E00C942A
:10014000CC02CF93DF93EC0161E089810E943B03F5
:1001500082E390E00E94CC0260E088810E943B0331
:1001600082E390E00E94CC0260E089810E943B0320
:1001700082E390E0DF91CF910C94CC020F931F9318
:10018000CF93DF93EC01062F18E061E088810E9495
:100190003B0382E390E00E94CC0200FF02C060E0DB
:1001A00001C061E089810E943B0382E390E00E94EC
:1001B000CC0260E088810E943B0382E390E00E94D1
:1001C000CC020695115009F761E088810E943B033B
:1001D00060E089810E943B0382E390E00E94CC02B0
:1001E00060E088810E943B0382E390E00E94CC02A1
:1001F00089810E94AA03182F811104C061E08981BE
:100200000E943B0382E390E00E94CC0261E088817F
:100210000E943B0382E390E00E94CC0281E0111136
:1002200001C080E0DF91CF911F910F9108958F92CF
:100230009F92BF92CF92DF92EF92FF920F931F9304
:10024000CF93DF931F92CDB7DEB74C017B01B42E65
:1002500029830E94980060E4C4010E94BE00C4018A
:100260000E94A100C4010E9498002981237060ECC3
:10027000620FC40129830E94BE0087012981C22E1A
:10028000D12CCE18DF08802F8E198B15F0F4C60103
:10029000800F911F019789F4F4018381F0E88F9F0B
:1002A000C0011124F8016081682BC4010E94BE00C6
:1002B000F8018081F401848305C0F8016081C401E4
:1002C0000E94BE000F5F1F4FDECFC4010E94A1003D
:1002D000C4010E949800F40162816F706058C401EB
:1002E0000E94BE00C4010F90DF91CF911F910F912A
:1002F000FF90EF90DF90CF90BF909F908F900C94E5
:10030000A10021E0FC012383BC016C5F7F4F41E031
:100310000C941701FC011382BC016C5F7F4F21E03C
:1003200041E00C941701AF92BF92CF92DF92EF920F
:10033000FF920F931F93CF93DF9300D000D0CDB7E0
:10034000DEB76C018B0119821A821B821C82FE01AE
:10035000349620E030E0A42EB12C8AE0E82EF12C77
:10036000C501022E02C0959587950A94E2F780FF99
:100370000AC0C801B7010E9475048F5F9E4FDC015F
:100380008C91808301C01082C801B7010E9475045E
:100390008B012F5F3F4F31972430310509F720E063
:1003A00044E0BE016F5F7F4FC6010E9417010F90AE
:1003B0000F900F900F90DF91CF911F910F91FF90B1
:1003C000EF90DF90CF90BF90AF900895EF92FF92A3
:1003D0000F93CF93DF9300D000D000D0CDB7DEB71E
:1003E0007A01462F682FCE0101962E830E9481004C
:1003F0008FE08B832E81CE010196222319F00E947B
:10040000810102C00E948A01402FB701CE010196EE
:100410000E94930126960FB6F894DEBF0FBECDBFA3
:10042000DF91CF910F91FF90EF9008950F930FE020
:100430000E94E6010F910895089520E047E554E0F9
:1004400062E083E00E9416026CE271E080E090E0DE
:100450000E94A40220E04EEA58E062E083E00E949D
:1004600016026CE271E080E090E00C94A4021F920E
:100470000F920FB60F9211242F933F938F939F9358
:10048000AF93BF938091230190912401A091250106
:10049000B09126013091220123E0230F2D3720F463
:1004A0000196A11DB11D05C026E8230F0296A11DCE
:1004B000B11D209322018093230190932401A093E6
:1004C0002501B09326018091270190912801A091E8
:1004D0002901B0912A010196A11DB11D8093270128
:1004E00090932801A0932901B0932A01BF91AF9165
:1004F0009F918F913F912F910F900FBE0F901F9062
:1005000018953FB7F8948091270190912801A09108
:100510002901B0912A0126B5A89B05C02F3F19F0EB
:100520000196A11DB11D3FBF6627782F892F9A2FF5
:10053000620F711D811D911D42E0660F771F881F9C
:10054000991F4A95D1F70895CF92DF92EF92FF92CB
:10055000CF93DF936B017C010E948102EB01C114F8
:10056000D104E104F10489F00E9474040E94810224
:100570006C1B7D0B683E734090F381E0C81AD10874
:10058000E108F108C851DC4FEACFDF91CF91FF902D
:10059000EF90DF90CF9008958230910538F0880F6A
:1005A000991F880F991F05970197F1F7089578947F
:1005B00084B5826084BD84B5816084BD85B5826068
:1005C00085BD85B5816085BDEEE6F0E08081816006
:1005D0008083E1E8F0E01082808182608083808106
:1005E00081608083E0E8F0E0808181608083E1EBDE
:1005F000F0E0808184608083E0EBF0E080818160C6
:100600008083EAE7F0E0808184608083808182607B
:100610008083808181608083808180688083109264
:10062000C1000895833081F028F4813099F0823040
:10063000A1F008958730A9F08830B9F08430D1F462
:10064000809180008F7D03C0809180008F778093A0
:100650008000089584B58F7702C084B58F7D84BDF6
:1006600008958091B0008F7703C08091B0008F7D96
:100670008093B0000895CF93DF9390E0FC01E4589D
:10068000FF4F2491FC01E057FF4F8491882349F1EB
:1006900090E0880F991FFC01E854FF4FA591B49199
:1006A00082559F4FFC01C591D4919FB7611108C03D
:1006B000F8948C91209582238C93888182230AC0A0
:1006C000623051F4F8948C91322F309583238C93BF
:1006D0008881822B888304C0F8948C91822B8C9320
:1006E0009FBFDF91CF9108950F931F93CF93DF9317
:1006F0001F92CDB7DEB7282F30E0F901E859FF4F40
:100700008491F901E458FF4F1491F901E057FF4F2C
:1007100004910023C9F0882321F069830E94120309
:100720006981E02FF0E0EE0FFF1FE255FF4FA5912A
:10073000B4919FB7F8948C91611103C010958123F7
:1007400001C0812B8C939FBF0F90DF91CF911F91A0
:100750000F910895CF93DF93282F30E0F901E859E6
:10076000FF4F8491F901E458FF4FD491F901E0570C
:10077000FF4FC491CC2391F081110E941203EC2F02
:10078000F0E0EE0FFF1FEC55FF4FA591B4912C91B7
:100790002D2381E090E021F480E002C080E090E031
:1007A000DF91CF910895813039F018F0823051F007
:1007B000089510926E00089580916F008D7F809350
:1007C0006F000895809170008D7F8093700081E0AC
:1007D0008093B0008091B100887F84608093B100E5
:1007E0001092B3000895CF93C82F809100018C130D
:1007F00007C0E2ECF0E084919FEF9093000101C00C
:100800008FEF0E94D30360E08C2FCF910C94740380
:100810001F920F920FB60F9211242F933F934F9375
:100820005F936F937F938F939F93AF93BF93EF9358
:10083000FF9380912E0190912F01A0913001B091F2
:100840003101892B8A2B8B2B51F190912B01E09157
:100850002C01F0912D0180818927808380912E01C8
:1008600090912F01A0913001B09131011816190615
:100870001A061B06C4F480912E0190912F01A091BD
:100880003001B09131010197A109B10980932E0186
:1008900090932F01A0933001B093310104C0809157
:1008A00000010E94F303FF91EF91BF91AF919F91DF
:1008B0008F917F916F915F914F913F912F910F9009
:1008C0000FBE0F901F90189508950E94D7020E94A6
:1008D00064040E941C02C0E0D0E00E941D02209728
:1008E000E1F30E940000F9CF0895AA1BBB1B51E160
:1008F00007C0AA1FBB1FA617B70710F0A61BB70B90
:10090000881F991F5A95A9F780959095BC01CD0134
:060910000895F894FFCFEA
:10091600FF3F065B4F666D7D077F6F777C394779B2
:100926007100000000000000000000000000000050
:020936000000BF
:107800000C94343C0C94513C0C94513C0C94513CE1
:107810000C94513C0C94513C0C94513C0C94513CB4
:107820000C94513C0C94513C0C94513C0C94513CA4
:107830000C94513C0C94513C0C94513C0C94513C94
:107840000C94513C0C94513C0C94513C0C94513C84
:107850000C94513C0C94513C0C94513C0C94513C74
:107860000C94513C0C94513C11241FBECFEFD8E036
:10787000DEBFCDBF11E0A0E0B1E0ECE9FFE702C060
:1078800005900D92A230B107D9F712E0A2E0B1E065
:1078900001C01D92AD30B107E1F70E942D3D0C945F
:1078A000CC3F0C94003C982F959595959595959582
:1078B000905D8F708A307CF0282F295A8091C0000B
:1078C00085FFFCCF9093C6008091C00085FFFCCF60
:1078D0002093C6000895282F205DF0CF982F809127
:1078E000C00085FFFCCF9093C6000895EF92FF92F1
:1078F0000F931F93EE24FF2487018091C00087FD22
:1079000017C00894E11CF11C011D111D81E4E8164B
:1079100082E4F8068FE0080780E0180770F3E09132
:107920000401F091050109958091C00087FFE9CF1E
:107930008091C6001F910F91FF90EF9008950E94D3
:10794000763C982F8091C00085FFFCCF9093C600B5
:1079500091362CF490330CF09053892F089597555D
:10796000892F08951F930E949F3C182F0E949F3CCF
:107970001295107F810F1F9108951F93182F882350
:1079800021F00E94763C1150E1F71F9108951F935A
:10799000182F0E94763C803249F0809103018F5F5E
:1079A000809303018530C1F01F9108958091C0003C
:1079B00085FFFCCF84E18093C6008091C00085FFE5
:1079C000FCCF1093C6008091C00085FFFCCF80E102
:1079D0008093C6001F910895E0910401F091050184
:1079E00009951F9108950E94763C803241F0809164
:1079F00003018F5F80930301853081F008958091AA
:107A0000C00085FFFCCF84E18093C6008091C00058
:107A100085FFFCCF80E18093C6000895E0910401CA
:107A2000F09105010995089540E951E08823A1F0FE
:107A30002D9A28EE33E0FA013197F1F721503040CA
:107A4000D1F72D9828EE33E0FA013197F1F7215064
:107A50003040D1F7815061F708953F924F925F9285
:107A60006F927F928F929F92AF92BF92CF92DF924E
:107A7000EF92FF920F931F93CF93DF93000080E16B
:107A80008093C4001092C50088E18093C10086E015
:107A90008093C2005098589A259A81E00E94143D24
:107AA00024E1F22E9EE1E92E85E9D82E0FE0C02ECA
:107AB00010E1B12EAA24A394B1E49B2EA6E58A2E50
:107AC000F2E57F2EE0E26E2E79E4572E63E5462E36
:107AD00050E5352E0E94763C8033B1F18133B9F107
:107AE000803409F46FC0813409F476C0823409F41B
:107AF00085C0853409F488C0803531F1823521F1A3
:107B0000813511F1853509F485C0863509F48DC0BC
:107B1000843609F496C0843709F403C1853709F423
:107B200072C1863709F466C0809103018F5F80932C
:107B30000301853079F6E0910401F0910501099582
:107B40000E94763C803351F60E94F33CC3CF0E94E2
:107B5000763C803249F78091C00085FFFCCFF092DF
:107B6000C6008091C00085FFFCCF9092C600809136
:107B7000C00085FFFCCF8092C6008091C00085FFC9
:107B8000FCCF7092C6008091C00085FFFCCF609250
:107B9000C6008091C00085FFFCCF5092C600809146
:107BA000C00085FFFCCF4092C6008091C00085FFD9
:107BB000FCCF3092C6008091C00085FFFCCFB09210
:107BC000C60088CF0E94763C863808F4BDCF0E945C
:107BD000763C0E94F33C7ECF0E94763C803809F4CC
:107BE0009CC0813809F40BC1823809F43CC1883942
:107BF00009F48FC080E00E94C73C6CCF84E10E94F2
:107C0000BD3C0E94F33C66CF85E00E94BD3C0E94D3
:107C1000F33C60CF0E94763C809306010E94763C44
:107C2000809307010E94F33C55CF0E94763C80333D
:107C300009F41DC183E00E94BD3C80E00E94C73C66
:107C400049CF0E94763C809309020E94763C809343
:107C5000080280910C028E7F80930C020E94763C79
:107C6000853409F415C18091080290910902892B8D
:107C700089F000E010E00E94763CF801E85FFE4FDA
:107C800080830F5F1F4F80910802909109020817AF
:107C9000190788F30E94763C803209F045CF809125
:107CA0000C0280FF01C16091060170910701660F0F
:107CB000771F7093070160930601A0910802B091AD
:107CC00009021097C9F0E8E0F1E09B01AD014E0F09
:107CD0005F1FF999FECF32BD21BD819180BDFA9A17
:107CE000F99A2F5F3F4FE417F50799F76A0F7B1F4B
:107CF00070930701609306018091C00085FFFCCF5F
:107D0000F092C6008091C00085FFFCCFB092C60003
:107D1000E1CE83E00E94C73CDDCE82E00E94C73CFA
:107D2000D9CE0E94763C809309020E94763C8093D3
:107D300008028091060190910701880F991F909386
:107D40000701809306010E94763C853409F4A6C0A1
:107D500080910C028E7F80930C020E94763C8032D0
:107D600009F0B8CE8091C00085FFFCCFF092C6002C
:107D7000609108027091090261157105B9F140E046
:107D800050E080910C02A82FA170B82FB27011C0E2
:107D9000BB2309F45CC0E0910601F0910701319624
:107DA000F0930701E09306014F5F5F4F46175707B7
:107DB000E8F4AA2369F3F999FECF209106013091E6
:107DC000070132BD21BDF89A90B58091C00085FFB2
:107DD000FCCF9093C6002F5F3F4F30930701209355
:107DE00006014F5F5F4F4617570718F38091C00099
:107DF00085FDE5CE8091C00085FFF8CFE0CE81E023
:107E00000E94C73C67CE0E94763C803209F08CCE3F
:107E10008091C00085FFFCCFF092C6008091C00029
:107E200085FFFCCFE092C6008091C00085FFFCCFAB
:107E3000D092C6008091C00085FFFCCFC092C600E2
:107E40008091C00085FFFCCFB092C60043CEE09188
:107E50000601F091070194918091C00085FFFCCF4D
:107E60009093C6009CCF80E10E94C73C33CE0E9415
:107E7000763C0E94763C182F0E94763C112309F430
:107E800083C0113009F484C08FE00E94C73C22CE29
:107E900080910C02816080930C02E5CE80910C02EF
:107EA000816080930C0259CF809107018823880F4D
:107EB000880B8A2180930B02809106019091070123
:107EC000880F991F90930701809306018091080203
:107ED00080FF09C080910802909109020196909359
:107EE000090280930802F894F999FECF1127E091D6
:107EF0000601F0910701C8E0D1E08091080290915D
:107F00000902103091F40091570001700130D9F34B
:107F100003E000935700E89500915700017001308D
:107F2000D9F301E100935700E89509901990009169
:107F3000570001700130D9F301E000935700E89534
:107F40001395103498F011270091570001700130FB
:107F5000D9F305E000935700E895009157000170B0
:107F60000130D9F301E100935700E895329602976A
:107F700009F0C7CF103011F00296E5CF112480919F
:107F8000C00085FFB9CEBCCE8EE10E94C73CA2CD19
:0C7F900085E90E94C73C9ECDF894FFCF0D
:027F9C00800063
:040000030000780081
:00000001FF
